{
  "contractName": "Lottery",
  "abi": [
    {
      "inputs": [],
      "stateMutability": "nonpayable",
      "type": "constructor"
    },
    {
      "anonymous": false,
      "inputs": [
        {
          "indexed": false,
          "internalType": "address",
          "name": "bettor",
          "type": "address"
        },
        {
          "indexed": false,
          "internalType": "uint256",
          "name": "amount",
          "type": "uint256"
        },
        {
          "indexed": false,
          "internalType": "uint256[2]",
          "name": "betNumArr",
          "type": "uint256[2]"
        }
      ],
      "name": "BET",
      "type": "event"
    },
    {
      "anonymous": false,
      "inputs": [
        {
          "indexed": false,
          "internalType": "address",
          "name": "bettor",
          "type": "address"
        },
        {
          "indexed": false,
          "internalType": "uint256",
          "name": "amount",
          "type": "uint256"
        },
        {
          "indexed": false,
          "internalType": "uint256[2]",
          "name": "betNumArr",
          "type": "uint256[2]"
        },
        {
          "indexed": false,
          "internalType": "uint256[2]",
          "name": "answerNumArr",
          "type": "uint256[2]"
        }
      ],
      "name": "DRAW",
      "type": "event"
    },
    {
      "anonymous": false,
      "inputs": [
        {
          "indexed": false,
          "internalType": "address",
          "name": "bettor",
          "type": "address"
        },
        {
          "indexed": false,
          "internalType": "uint256",
          "name": "amount",
          "type": "uint256"
        },
        {
          "indexed": false,
          "internalType": "uint256[2]",
          "name": "betNumArr",
          "type": "uint256[2]"
        },
        {
          "indexed": false,
          "internalType": "uint256[2]",
          "name": "answerNumArr",
          "type": "uint256[2]"
        }
      ],
      "name": "FAIL",
      "type": "event"
    },
    {
      "anonymous": false,
      "inputs": [
        {
          "indexed": false,
          "internalType": "address",
          "name": "bettor",
          "type": "address"
        },
        {
          "indexed": false,
          "internalType": "uint256",
          "name": "amount",
          "type": "uint256"
        },
        {
          "indexed": false,
          "internalType": "uint256[2]",
          "name": "betNumArr",
          "type": "uint256[2]"
        },
        {
          "indexed": false,
          "internalType": "uint256[2]",
          "name": "answerNumArr",
          "type": "uint256[2]"
        }
      ],
      "name": "WIN",
      "type": "event"
    },
    {
      "inputs": [],
      "name": "getAdmin",
      "outputs": [
        {
          "internalType": "address",
          "name": "",
          "type": "address"
        }
      ],
      "stateMutability": "view",
      "type": "function",
      "constant": true
    },
    {
      "inputs": [],
      "name": "getPot",
      "outputs": [
        {
          "internalType": "uint256",
          "name": "_pot",
          "type": "uint256"
        }
      ],
      "stateMutability": "view",
      "type": "function",
      "constant": true
    },
    {
      "inputs": [
        {
          "internalType": "uint256[2]",
          "name": "answerNumArr",
          "type": "uint256[2]"
        },
        {
          "internalType": "uint256[2]",
          "name": "betNumArr",
          "type": "uint256[2]"
        }
      ],
      "name": "checkNum",
      "outputs": [
        {
          "internalType": "enum Lottery.BettingResult",
          "name": "",
          "type": "uint8"
        }
      ],
      "stateMutability": "pure",
      "type": "function",
      "constant": true
    },
    {
      "inputs": [
        {
          "internalType": "uint256[2]",
          "name": "betNumArray",
          "type": "uint256[2]"
        }
      ],
      "name": "bet",
      "outputs": [
        {
          "internalType": "bool",
          "name": "",
          "type": "bool"
        }
      ],
      "stateMutability": "payable",
      "type": "function",
      "payable": true
    },
    {
      "inputs": [],
      "name": "getRandomNumbers",
      "outputs": [
        {
          "internalType": "uint256[2]",
          "name": "",
          "type": "uint256[2]"
        }
      ],
      "stateMutability": "view",
      "type": "function",
      "constant": true
    }
  ],
  "bytecode": "0x608060405260008060006101000a81548160ff02191690831515021790555034801561002a57600080fd5b5033600260006101000a81548173ffffffffffffffffffffffffffffffffffffffff021916908373ffffffffffffffffffffffffffffffffffffffff160217905550610ce88061007b6000396000f3fe60806040526004361061004a5760003560e01c806313d05f6b1461004f578063403c9fa81461007f5780634fdc84dc146100aa5780636e9960c3146100d5578063879a56a114610100575b600080fd5b610069600480360381019061006491906107a0565b61013d565b60405161007691906107e8565b60405180910390f35b34801561008b57600080fd5b506100946103da565b6040516100a19190610812565b60405180910390f35b3480156100b657600080fd5b506100bf6103e4565b6040516100cc91906108d8565b60405180910390f35b3480156100e157600080fd5b506100ea610509565b6040516100f79190610934565b60405180910390f35b34801561010c57600080fd5b506101276004803603810190610122919061094f565b610533565b6040516101349190610a06565b60405180910390f35b60006611c37937e080003414610188576040517f08c379a000000000000000000000000000000000000000000000000000000000815260040161017f90610a7e565b60405180910390fd5b600033905060006101976103e4565b905060006101a58286610533565b90507f8d070b6ccbf0b93f511d5c8581301863795530be8a22fc2ee1c0753ded7c3db73334876040516101da93929190610a9e565b60405180910390a1600160028111156101f6576101f561098f565b5b8160028111156102095761020861098f565b5b036102b3578273ffffffffffffffffffffffffffffffffffffffff166108fc6001546611c37937e0800061023d9190610b04565b9081150290604051600060405180830381858888f19350505050158015610268573d6000803e3d6000fd5b5060006001819055507fc99a18c78a3edfca566079b5df6447a148e03a03a2b5fe61274758752cf280c8333487856040516102a69493929190610b38565b60405180910390a16103ce565b600060028111156102c7576102c661098f565b5b8160028111156102da576102d961098f565b5b03610341576611c37937e08000600160008282546102f89190610b04565b925050819055507f2222180296776322b1f9ab04c0bcdcb48526632000fc29c47db9eb2a016536f8333487856040516103349493929190610b38565b60405180910390a16103cd565b8273ffffffffffffffffffffffffffffffffffffffff166108fc6611c37937e080009081150290604051600060405180830381858888f1935050505015801561038e573d6000803e3d6000fd5b507ff649031ee018ecd201f824f88b23d49ad6154fa10aca8cb7da103b776c349dd4333487856040516103c49493929190610b38565b60405180910390a15b5b60019350505050919050565b6000600154905090565b6103ec6105f2565b6103f46105f2565b600080805b60028310156104ca57600090506001600a42448660405160200161041f93929190610b9e565b6040516020818303038152906040528051906020012060001c6104429190610c0a565b61044c9190610b04565b915060005b838110156104935784816002811061046c5761046b610c3b565b5b602002015183036104805760019150610493565b808061048b90610c6a565b915050610451565b50806104c557818484600281106104ad576104ac610c3b565b5b60200201818152505082806104c190610c6a565b9350505b6103f9565b60006040518060400160405280600181526020016002815250905060008054906101000a900460ff166104fd57806104ff565b845b9550505050505090565b6000600260009054906101000a900473ffffffffffffffffffffffffffffffffffffffff16905090565b6000806000905060005b60028110156105c15760005b60028110156105ad5784816002811061056557610564610c3b565b5b602002015186836002811061057d5761057c610c3b565b5b60200201510361059a57828061059290610c6a565b9350506105ad565b80806105a590610c6a565b915050610549565b5080806105b990610c6a565b91505061053d565b50600281036105d45760019150506105ec565b600181036105e65760029150506105ec565b60009150505b92915050565b6040518060400160405280600290602082028036833780820191505090505090565b6000604051905090565b600080fd5b600080fd5b6000601f19601f8301169050919050565b7f4e487b7100000000000000000000000000000000000000000000000000000000600052604160045260246000fd5b61067182610628565b810181811067ffffffffffffffff821117156106905761068f610639565b5b80604052505050565b60006106a3610614565b90506106af8282610668565b919050565b600067ffffffffffffffff8211156106cf576106ce610639565b5b602082029050919050565b600080fd5b6000819050919050565b6106f2816106df565b81146106fd57600080fd5b50565b60008135905061070f816106e9565b92915050565b6000610728610723846106b4565b610699565b90508060208402830185811115610742576107416106da565b5b835b8181101561076b57806107578882610700565b845260208401935050602081019050610744565b5050509392505050565b600082601f83011261078a57610789610623565b5b6002610797848285610715565b91505092915050565b6000604082840312156107b6576107b561061e565b5b60006107c484828501610775565b91505092915050565b60008115159050919050565b6107e2816107cd565b82525050565b60006020820190506107fd60008301846107d9565b92915050565b61080c816106df565b82525050565b60006020820190506108276000830184610803565b92915050565b600060029050919050565b600081905092915050565b6000819050919050565b610856816106df565b82525050565b6000610868838361084d565b60208301905092915050565b6000602082019050919050565b61088a8161082d565b6108948184610838565b925061089f82610843565b8060005b838110156108d05781516108b7878261085c565b96506108c283610874565b9250506001810190506108a3565b505050505050565b60006040820190506108ed6000830184610881565b92915050565b600073ffffffffffffffffffffffffffffffffffffffff82169050919050565b600061091e826108f3565b9050919050565b61092e81610913565b82525050565b60006020820190506109496000830184610925565b92915050565b600080608083850312156109665761096561061e565b5b600061097485828601610775565b925050604061098585828601610775565b9150509250929050565b7f4e487b7100000000000000000000000000000000000000000000000000000000600052602160045260246000fd5b600381106109cf576109ce61098f565b5b50565b60008190506109e0826109be565b919050565b60006109f0826109d2565b9050919050565b610a00816109e5565b82525050565b6000602082019050610a1b60008301846109f7565b92915050565b600082825260208201905092915050565b7f4e6f7420656e6f75676820455448000000000000000000000000000000000000600082015250565b6000610a68600e83610a21565b9150610a7382610a32565b602082019050919050565b60006020820190508181036000830152610a9781610a5b565b9050919050565b6000608082019050610ab36000830186610925565b610ac06020830185610803565b610acd6040830184610881565b949350505050565b7f4e487b7100000000000000000000000000000000000000000000000000000000600052601160045260246000fd5b6000610b0f826106df565b9150610b1a836106df565b9250828201905080821115610b3257610b31610ad5565b5b92915050565b600060c082019050610b4d6000830187610925565b610b5a6020830186610803565b610b676040830185610881565b610b746080830184610881565b95945050505050565b6000819050919050565b610b98610b93826106df565b610b7d565b82525050565b6000610baa8286610b87565b602082019150610bba8285610b87565b602082019150610bca8284610b87565b602082019150819050949350505050565b7f4e487b7100000000000000000000000000000000000000000000000000000000600052601260045260246000fd5b6000610c15826106df565b9150610c20836106df565b925082610c3057610c2f610bdb565b5b828206905092915050565b7f4e487b7100000000000000000000000000000000000000000000000000000000600052603260045260246000fd5b6000610c75826106df565b91507fffffffffffffffffffffffffffffffffffffffffffffffffffffffffffffffff8203610ca757610ca6610ad5565b5b60018201905091905056fea2646970667358221220fcd9edc89b8cd631d21e3a17f7ca530212d08846684eb8e754b64563653bf23964736f6c63430008130033",
  "immutableReferences": {},
  "source": "// SPDX-License-Identifier: MIT\npragma solidity >=0.4.22 <0.9.0;\n\ncontract Lottery {\n\n    uint256 constant internal BET_AMOUNT = 5 * 10 ** 15;\n    uint256 constant internal BET_LENGTH = 2;\n    bool internal mode = false;\n\n    enum BettingResult {Fail, Win, Draw}\n\n    event BET(address bettor, uint256 amount, uint256[BET_LENGTH] betNumArr);\n    event WIN(address bettor, uint256 amount, uint256[BET_LENGTH] betNumArr, uint256[BET_LENGTH] answerNumArr);\n    event DRAW(address bettor, uint256 amount, uint256[BET_LENGTH] betNumArr, uint256[BET_LENGTH] answerNumArr);\n    event FAIL(address bettor, uint256 amount, uint256[BET_LENGTH] betNumArr, uint256[BET_LENGTH] answerNumArr);\n\n    uint256 private pot;\n\n    address payable admin;\n\n    constructor() {\n        admin = payable(msg.sender);\n    }\n\n    function getAdmin() public view returns (address) {\n        return admin;\n    }\n    function getPot() public view returns (uint256 _pot) {\n        return pot;\n    }\n\n    function checkNum(uint[BET_LENGTH] memory answerNumArr, uint[BET_LENGTH] memory betNumArr) public pure returns (BettingResult) {\n        uint count = 0;\n\n        for (uint i = 0; i < BET_LENGTH; i++) {\n            for (uint j = 0; j < BET_LENGTH; j++) {\n                if (answerNumArr[i] == betNumArr[j]) {\n                    count++;\n                    break;\n                }\n            }\n        }\n\n        if(count == BET_LENGTH) return BettingResult.Win;\n        else if(count == 1) return BettingResult.Draw;\n        else return BettingResult.Fail;\n    }\n\n    function bet(uint256[BET_LENGTH] memory betNumArray) public payable returns (bool) {\n        require(msg.value == BET_AMOUNT, \"Not enough ETH\");\n        address payable adrr = payable(msg.sender);\n\n        uint256[BET_LENGTH] memory answerNumArr = getRandomNumbers();\n        BettingResult bettingResult = checkNum(answerNumArr, betNumArray);\n\n    \n        emit BET(msg.sender, msg.value, betNumArray);\n\n        if(bettingResult == BettingResult.Win){\n            adrr.transfer(BET_AMOUNT + pot);\n            pot = 0;\n            emit WIN(msg.sender, msg.value, betNumArray, answerNumArr);\n        }\n        else if(bettingResult == BettingResult.Fail){\n            pot += BET_AMOUNT;\n            emit FAIL(msg.sender, msg.value, betNumArray, answerNumArr);\n        }\n        else{\n            adrr.transfer(BET_AMOUNT);\n            emit DRAW(msg.sender, msg.value, betNumArray, answerNumArr);\n        }\n        \n        return true;\n    }\n\n    function getRandomNumbers() public view returns (uint256[BET_LENGTH] memory) {\n        uint256[BET_LENGTH] memory randomNumbers;\n        uint256 count = 0;\n        uint256 randNum;\n        bool isDuplicate;\n        \n        while (count < BET_LENGTH) {\n            isDuplicate = false;\n            randNum = (uint256(keccak256(abi.encodePacked(block.timestamp, block.prevrandao, count))) % 10) + 1;\n            for(uint i = 0; i < count; i++) {\n                if (randNum == randomNumbers[i]) {\n                    isDuplicate = true;\n                    break;\n                }\n            }\n            if (!isDuplicate) {\n                randomNumbers[count] = randNum;\n                count++;\n            }\n        }\n\n        uint256[BET_LENGTH] memory testData = [uint256(1), uint256(2)];\n        return mode ? randomNumbers : testData;\n    }\n}\n",
  "sourcePath": "/Users/aestera/Downloads/Solidity-Lottery/contracts/Lottery.sol",
  "compiler": {
    "name": "solc",
    "version": "0.8.19+commit.7dd6d404.Emscripten.clang"
  },
  "schemaVersion": "3.4.16",
  "updatedAt": "2024-08-31T10:01:55.089Z",
  "networkType": "ethereum",
  "devdoc": {
    "kind": "dev",
    "methods": {},
    "version": 1
  },
  "userdoc": {
    "kind": "user",
    "methods": {},
    "version": 1
  }
}